:100000000C94A1000C94D2000C94D2000C94D20059
:100010000C94D2000C94D2000C94D2000C94D20018
:100020000C94D2000C94D2000C94D2000C94D20008
:100030000C94D2000C94D2000C94D2000C94D200F8
:100040000C94D2000C94D2000C94D2000C94D200E8
:100050000C94D2000C94D2000C94D2000C940C049A
:100060000C94D2000C9480040C9456040C94D2008E
:100070000C94D2000C94D2000C94D2000C94D200B8
:100080000C94D2000C94D2000C94D2000C94D200A8
:100090000C94D2000C94D2000C94D2000C94D20098
:1000A0000C94D2000C94D2000C94D2000C94D20088
:1000B0000C94D2000C94D2000C94D2000C94D20078
:1000C0000C94D2000C94D2000C94D2000C94D20068
:1000D0000C94D2000C94D2000C94D2000C94D20058
:1000E0000C94D2000C942E060C9464010C94AA017A
:1000F0000C94F7010C94D4000C9401010C941001A1
:100100000C9472014E414E494E495459494E46CDC8
:10011000CCCC3D0AD7233C17B7D13877CC2B3295BE
:1001200095E6241FB14F0A000020410000C842009C
:10013000401C4620BCBE4CCA1B0E5AAEC59D740066
:100140002E0611241FBECFEFD1E2DEBFCDBF00E0EF
:100150000CBF23E0A2E9B2E001C01D92A635B207B0
:10016000E1F712E0A0E0B2E0E2EFF8E100E00BBF5F
:1001700002C007900D92A239B107D9F710E0C1EA89
:10018000D0E000E006C021970109802FFE010E9407
:10019000590AC03AD10780E00807A9F70E94B604BF
:1001A0000C94770C0C940000AF92BF92CF92DF9228
:1001B000EF92FF920F931F93CF93DF936C017B011C
:1001C0008B01040F151FEB015E01AE18BF08C017AD
:1001D000D10759F06991D601ED91FC910190F08120
:1001E000E02DC6011995892B79F7C501DF91CF91D3
:1001F0001F910F91FF90EF90DF90CF90BF90AF9045
:100200000895FC01538D448D252F30E0842F90E01C
:10021000821B930B541710F0CF9608950197089501
:10022000FC01918D828D981761F0A28DAE0FBF2FCA
:10023000B11D5D968C91928D9F5F9F73928F90E020
:1002400008958FEF9FEF08952FB7F8948091AF0234
:100250009091B002A091B102B091B2022FBF8093F1
:10026000BB029093BC02A093BD02B093BE0283EB8D
:1002700092E00E94100197FF26C02FB7F89480915A
:10028000AF029091B002A091B102B091B2022FBF23
:100290004091BB025091BC026091BD027091BE02C0
:1002A000841B950BA60BB70B4091B7025091B80277
:1002B0006091B9027091BA0284179507A607B70733
:1002C000B0F28FEF9FEF0895FC01918D828D98170A
:1002D00031F0828DE80FF11D858D90E008958FEF4C
:1002E0009FEF0895FC01918D228D892F90E0805C15
:1002F0009F4F821B91098F739927089583EB92E09A
:100300000E94720121E0892B09F420E0822F0895D8
:10031000FC01A48DA80FB92FB11DA35ABF4F2C917A
:10032000848D90E001968F739927848FA689B78971
:100330002C93A089B1898C91837080648C93938D68
:10034000848D981306C00288F389E02D80818F7D0B
:1003500080830895EF92FF920F931F93CF93DF93C3
:10036000EC0181E0888F9B8D8C8D98131AC0E889F1
:10037000F989808185FF15C09FB7F894EE89FF89C0
:100380006083E889F98980818370806480839FBF5E
:1003900081E090E0DF91CF911F910F91FF90EF905E
:1003A0000895F62E0B8D10E00F5F1F4F0F7311276E
:1003B000E02E8C8D8E110CC00FB607FCFACFE889A9
:1003C000F989808185FFF5CFCE010E948801F1CFA8
:1003D000EB8DEC0FFD2FF11DE35AFF4FF0829FB71D
:1003E000F8940B8FEA89FB8980818062CFCFCF930D
:1003F000DF93EC01888D8823B9F0AA89BB89E8894D
:10040000F9898C9185FD03C0808186FD0DC00FB6F2
:1004100007FCF7CF8C9185FFF2CF808185FFEDCF70
:10042000CE010E948801E9CFDF91CF91089580E04D
:1004300090E0892B29F00E947E0181110E9400002A
:1004400080E090E0892B49F080E090E0892B29F052
:100450000E94000081110E94000080E090E0892B42
:1004600049F080E090E0892B29F00E940000811182
:100470000E94000080E090E0892B49F080E090E04D
:10048000892B29F00E94000081110C94000008952E
:10049000FC0101900020E9F73197AF01481B590B8F
:1004A000BC0183EB92E00C94D4008F929F92AF92A8
:1004B000BF920F931F93CF93DF93CDB7DEB7A19772
:1004C0000FB6F894DEBF0FBECDBF19A2423008F4BC
:1004D0004AE08E010F5D1F4F842E912CB12CA12C70
:1004E000A50194010E94370AE62FB901CA01EA303A
:1004F000F4F4E05DD801EE938D01232B242B252B02
:1005000079F790E080E0109719F0CD010E94480241
:10051000A1960FB6F894DEBF0FBECDBFDF91CF918D
:100520001F910F91BF90AF909F908F900895E95CBD
:10053000E1CFFC0180819181009711F00C94FD0ABC
:1005400008954F925F926F927F928F929F92AF9297
:10055000BF92CF92DF92EF92FF920F931F93CF93B0
:100560006B017C01742EAC019B010E94320A88232E
:1005700099F088E192E0CF911F910F91FF90EF9059
:10058000DF90CF90BF90AF909F908F907F906F90B3
:100590005F904F900C94480246015701E894B7F8D9
:1005A0002FEF3FEF4FE75FE7C501B4010E94320A2A
:1005B00081110DC02FEF3FEF4FE75FE7C501B40199
:1005C0000E94DE0718161CF48CE192E0D4CF2FEFC6
:1005D0003FEF4FE75FE4C701B6010E942D0A1816EE
:1005E0001CF480E292E0C7CF2FEF3FEF4FE75FECC4
:1005F000C701B6010E94DE0787FDF3CF20E030E09F
:10060000A901C701B6010E94DE0710E000E087FFE4
:100610000AC06DE283EB92E00E94AA018C01F7FA16
:10062000F094F7F8F094C0E060E070E080E09FE3C1
:100630007C1641F020E030E040E251E40E948C0959
:10064000CF5FF6CFA70196010E9420092B013C0144
:100650000E94FE094B015C014AE00E9455027C01A8
:10066000E00EF11ECC23C1F1C501B4010E94E307E5
:100670009B01AC01C301B2010E941F094B015C0147
:100680006EE283EB92E00E94AA01E80EF91EC150CF
:1006900018F120E030E040E251E4C501B4010E94CD
:1006A00044082B013C010E94FE094B01B12CA12CF6
:1006B0004AE0C501B4010E945502E80EF91EC501C9
:1006C000B4010E94E3079B01AC01C301B2010E9487
:1006D0001F094B015C01DBCFC701CF911F910F9127
:1006E000FF90EF90DF90CF90BF90AF909F908F9052
:1006F0007F906F905F904F900895FC018081918171
:10070000009711F00C945B0660E070E0CB01089557
:100710000F931F93CF93DF93EC018881998100970A
:1007200059F02A813B812617370730F081E0DF91AD
:10073000CF911F910F9108958B016F5F7F4F0E94A2
:10074000860B009759F0998388831B830A832C8139
:100750003D81232B59F7FC011082E8CF80E0E7CFE1
:10076000EF92FF920F931F93CF93DF931F921F92ED
:10077000CDB7DEB78C01FC01118210821382128288
:100780001582148270E060E00E948803F8012081E5
:10079000318181112FC02115310519F0C9010E9445
:1007A000FD0AF801118210821582148213821282CE
:1007B0000E94240197FD26C089831A82F801E480F3
:1007C000F580FFEFEF1AFF0AB701C8010E94880306
:1007D000882371F3F8012081318184819581BE01E4
:1007E0006F5F7F4F820F931F0E94700CF801F5829C
:1007F000E482DECF1582148269E772E0C9010E94AB
:10080000700CD6CFC8010F900F90DF91CF911F9140
:100810000F91FF90EF9008951F920F920FB60F92D5
:1008200011242F933F938F939F93AF93BF93809106
:10083000AF029091B002A091B102B091B20230919A
:10084000AE0223E0230F2D3758F50196A11DB11DEF
:100850002093AE028093AF029093B002A093B102B6
:10086000B093B2028091AA029091AB02A091AC0227
:10087000B091AD020196A11DB11D8093AA02909383
:10088000AB02A093AC02B093AD02BF91AF919F9128
:100890008F913F912F910F900FBE0F901F90189541
:1008A00026E8230F0296A11DB11DD2CF1F920F92F1
:1008B0000FB60F9211240BB60F922F933F934F93C5
:1008C0005F936F937F938F939F93AF93BF93EF93B8
:1008D000FF9383EB92E00E948801FF91EF91BF911B
:1008E000AF919F918F917F916F915F914F913F91C8
:1008F0002F910F900BBE0F900FBE0F901F90189569
:100900001F920F920FB60F9211240BB60F922F93D6
:100910008F939F93EF93FF93E091C302F091C402F2
:100920008081E091C902F091CA0282FD1DC09081D0
:100930008091CC028F5F8F732091CD02821741F09E
:10094000E091CC02F0E0ED54FD4F958F8093CC0206
:10095000FF91EF919F918F912F910F900BBE0F9070
:100960000FBE0F901F9018958081F2CFCF93DF9329
:1009700000D000D0CDB7DEB7789484B5826084BD56
:1009800084B5816084BD85B5826085BD85B5816093
:1009900085BD80916E00816080936E001092810011
:1009A00080918100826080938100809181008160CC
:1009B000809381008091800081608093800080918D
:1009C000B10084608093B1008091B0008160809319
:1009D000B00080919100826080939100809191009D
:1009E000816080939100809190008160809390005D
:1009F0008091A10082608093A1008091A10081601C
:100A00008093A1008091A00081608093A0008091DC
:100A10002101826080932101809121018160809376
:100A200021018091200181608093200180917A00D2
:100A3000846080937A0080917A00826080937A004B
:100A400080917A00816080937A0080917A0080683A
:100A500080937A001092C100E091C302F091C40229
:100A600082E08083E091BF02F091C0021082E091A9
:100A7000C102F091C2028FEC80831092CB02E09110
:100A8000C702F091C80286E08083E091C502F09130
:100A9000C602808180618083E091C502F091C60228
:100AA000808188608083E091C502F091C6028081D8
:100AB00080688083E091C502F091C60280818F7DBD
:100AC000808383EB92E00E947201181619060CF0E5
:100AD000C2C084E292E00E944802CE0101960E94C8
:100AE000B003CE0101960E947D036093A60270932D
:100AF000A7028093A8029093A902CE0101960E94BA
:100B0000990283E392E00E944802CE0101960E947E
:100B1000B003CE0101960E947D036093A202709300
:100B2000A3028093A4029093A502CE0101960E9495
:100B3000990282E492E00E944802CE0101960E944E
:100B4000B003CE0101960E947D0360939E027093D4
:100B50009F028093A0029093A102CE0101960E9471
:100B6000990281E592E00E944802CE0101960E941E
:100B7000B003CE0101960E947D036B017C01C092FF
:100B80009A02D0929B02E0929C02F0929D02CE01CA
:100B900001960E94990220919E0230919F024091FD
:100BA000A0025091A1026091A6027091A7028091CB
:100BB000A8029091A9020E94200920E030E040E0C4
:100BC0005FE30E94440860939602709397028093BB
:100BD0009802909399022091A2023091A302409131
:100BE000A4025091A502C701B6010E94200920E08D
:100BF00030E040E05FE30E9444086093920270930B
:100C00009302809394029093950280E692E00E9472
:100C1000480260919602709197028091980290919B
:100C2000990242E00E94A10287E792E00E944802F6
:100C30008AE792E00E9448026091920270919302CA
:100C4000809194029091950242E00E94A10287E770
:100C500092E00E9448020E94170233CFE3EBF2E0D9
:100C60001382128288EE93E0A0E0B0E08483958343
:100C7000A683B7838AE092E09183808385EC90E03D
:100C80009587848784EC90E09787868780EC90E056
:100C9000918B808B81EC90E0938B828B82EC90E047
:100CA000958B848B86EC90E0978B868B118E128EC1
:100CB000138E148E0895662777270C945F068F9203
:100CC0009F92AF92BF92CF92DF92EF92FF920F93DB
:100CD0001F93CF93DF935C017B016115710519F0C0
:100CE000DB018D939C9385010F5F1F4FF501D08130
:100CF0008D2F90E00E94BD076C01892BB9F5DD3284
:100D0000B9F50F5F1F4FD5011196DC91C1E0580175
:100D1000F1E0AF1AB10843E050E06CE071E0C501CA
:100D20000E94C607892B69F5680182E0C80ED11CB4
:100D300045E050E067E071E0C6010E94C607892BDC
:100D400021F4680197E0C90ED11CE114F10419F0F7
:100D5000D701CD92DC9260E070E080E89FEFC11196
:100D6000FFC060E070E080E89FE7FAC05801BBCFA9
:100D7000DB3229F485010E5F1F4FF501D181C0E000
:100D8000C6CF43E050E064E071E0C5010E94C607B1
:100D9000892BE9F0F80110E000E020E030E0A90143
:100DA0005F01B0ED8B2E8D0E89E08815C8F19C2E69
:100DB000689491F88C2F8870C2FF16C0811102C010
:100DC0000F5F1F4F3196D501DC91C92DE9CFE1149A
:100DD000F10429F00E5F1F4FF7011183008360E0DB
:100DE00070E080EC9FE7BCC0882311F0015011092E
:100DF000A5E0B0E00E9405099B01AC01220F331F62
:100E0000441F551F280D311D411D511D283999E9D9
:100E10003907490799E15907A8F2C6609C2ED2CF3D
:100E2000AEEF8A1206C0C3FD3CC09C2E689493F8B6
:100E3000C9CFDF7DD534A9F580818D3239F4C06109
:100E4000DF011296818162E070E006C0DF018B3223
:100E5000C1F3119661E070E080535D01A61AB70AF4
:100E60008A30F8F4E0E8CE16ECE0DE065CF4B60179
:100E7000660F771F660F771FC60ED71ECC0CDD1CC2
:100E8000C80ED11C5D01FFEFAF1ABF0A8C918053D1
:100E90008A30A8F1C4FF03C0D194C194D1080C0DCD
:100EA0001D1DC1FF09C0E114F10431F081E0A81A51
:100EB000B108D701AD92BC92CA01B9010E94E30703
:100EC000C370C33009F490584B015C0120E030E05E
:100ED000A9010E94DE07882309F440C0CBE3D1E0DA
:100EE00017FF05C0119501951109C3E2D1E06E010C
:100EF000B8E1CB1AD10880E2E82EF12C0FC0D50161
:100F0000B1CFFE0125913591459154910E191F09DC
:100F1000C501B4010E9444084B015C01D501C40124
:100F20000E151F0574F72497F594E794CC16DD068B
:100F3000A9F78A2F880F8B2F881F8F3F49F020E059
:100F400030E0A901C501B4010E94DE07811106C08D
:100F500082E290E09093510380935003C501B40165
:100F6000DF91CF911F910F91FF90EF90DF90CF9085
:100F7000BF90AF909F908F90089591110C94B108FD
:100F8000803219F089508550C8F70895FB01DC01C3
:100F90004150504088F08D9181341CF08B350CF419
:100FA000805E659161341CF06B350CF4605E861BCD
:100FB000611171F3990B0895881BFCCF0E942008E2
:100FC00008F481E00895E89409C097FB3EF49095F9
:100FD0008095709561957F4F8F4F9F4F9923A9F012
:100FE000F92F96E9BB279395F695879577956795A1
:100FF000B795F111F8CFFAF4BB0F11F460FF1BC0E5
:101000006F5F7F4F8F4F9F4F16C0882311F096E977
:1010100011C0772321F09EE8872F762F05C0662325
:1010200071F096E8862F70E060E02AF09A95660FDE
:10103000771F881FDAF7880F9695879597F9089597
:10104000990F0008550FAA0BE0E8FEEF16161706D9
:10105000E807F907C0F012161306E407F50798F041
:10106000621B730B840B950B39F40A2661F0232B5A
:10107000242B252B21F408950A2609F4A140A695D6
:101080008FEF811D811D08950E9457080C94CB0895
:101090000E94BD0838F00E94C40820F0952311F08A
:1010A0000C94B4080C94BA0811240C94FF080E9404
:1010B000DC0870F3959FC1F3950F50E0551F629FB8
:1010C000F001729FBB27F00DB11D639FAA27F00DA1
:1010D000B11DAA1F649F6627B00DA11D661F829FC8
:1010E0002227B00DA11D621F739FB00DA11D621FAD
:1010F000839FA00D611D221F749F3327A00D611DCA
:10110000231F849F600D211D822F762F6A2F1124AB
:101110009F5750409AF0F1F088234AF0EE0FFF1FDE
:10112000BB1F661F771F881F91505040A9F79E3F35
:10113000510580F00C94B4080C94FF085F3FE4F371
:10114000983ED4F3869577956795B795F795E7958B
:101150009F5FC1F7FE2B880F911D9695879597F994
:10116000089599278827089597F99F6780E870E088
:1011700060E008959FEF80EC089500240A9416160D
:10118000170618060906089500240A941216130675
:10119000140605060895092E0394000C11F4882303
:1011A00052F0BB0F40F4BF2B11F460FF04C06F5F1F
:1011B0007F4F8F4F9F4F089557FD9058440F551FF5
:1011C00059F05F3F71F04795880F97FB991F61F0C9
:1011D0009F3F79F087950895121613061406551F40
:1011E000F2CF4695F1DF08C0161617061806991FAC
:1011F000F1CF86957105610508940895E894BB27A1
:1012000066277727CB0197F908950E941009A59FBB
:10121000900DB49F900DA49F800D911D11240895F1
:10122000A29FB001B39FC001A39F700D811D112427
:10123000911DB29F700D811D1124911D089550586C
:10124000BB27AA270E9437090C94CB080E94BD082F
:1012500038F00E94C40820F039F49F3F19F426F4B6
:101260000C94BA080EF4E095E7FB0C94B408E92F4F
:101270000E94DC0858F3BA176207730784079507C2
:1012800020F079F4A6F50C94FE080EF4E0950B2EF0
:10129000BA2FA02D0B01B90190010C01CA01A001C8
:1012A0001124FF27591B99F0593F50F4503E68F123
:1012B0001A16F040A22F232F342F4427585FF3CF64
:1012C000469537952795A795F0405395C9F77EF435
:1012D0001F16BA0B620B730B840BBAF09150A1F07E
:1012E000FF0FBB1F661F771F881FC2F70EC0BA0F04
:1012F000621F731F841F48F4879577956795B7958C
:10130000F7959E3F08F0B0CF9395880F08F0992786
:10131000EE0F9795879508950E94A0090C94CB082D
:101320000E94C40858F00E94BD0840F029F45F3FB5
:1013300029F00C94B40851110C94FF080C94BA08CD
:101340000E94DC0868F39923B1F3552391F3951BB0
:10135000550BBB27AA2762177307840738F09F5FD6
:101360005F4F220F331F441FAA1FA9F335D00E2E43
:101370003AF0E0E832D091505040E695001CCAF7B0
:101380002BD0FE2F29D0660F771F881FBB1F261773
:1013900037074807AB07B0E809F0BB0B802DBF014A
:1013A000FF2793585F4F3AF09E3F510578F00C9419
:1013B000B4080C94FF085F3FE4F3983ED4F386959D
:1013C00077956795B795F7959F5FC9F7880F911D3A
:1013D0009695879597F90895E1E0660F771F881F26
:1013E000BB1F621773078407BA0720F0621B730BD9
:1013F000840BBA0BEE1F88F7E09508950E94E4086D
:1014000088F09F5798F0B92F9927B751B0F0E1F0C5
:10141000660F771F881F991F1AF0BA95C9F714C075
:10142000B13091F00E94FE08B1E008950C94FE08DE
:10143000672F782F8827B85F39F0B93FCCF38695AE
:1014400077956795B395D9F73EF49095809570950B
:1014500061957F4F8F4F9F4F08950E94200808F499
:101460008FEF08950E942008880B990B0895A1E240
:101470001A2EAA1BBB1BFD010DC0AA1FBB1FEE1F0E
:10148000FF1FA217B307E407F50720F0A21BB30B59
:10149000E40BF50B661F771F881F991F1A9469F7D5
:1014A00060957095809590959B01AC01BD01CF0131
:1014B0000895EE0FFF1F881F8BBF0790F691E02D58
:1014C00019940F931F93CF93DF938230910510F4FB
:1014D00082E090E0E0915403F091550330E020E089
:1014E000B0E0A0E0309799F42115310509F44AC025
:1014F000281B390B24303105D8F58A819B81611571
:10150000710589F1FB0193838283FE0111C0408143
:1015100051810281138148175907E0F04817590794
:1015200099F4109761F012960C93129713961C93EE
:101530003296CF01DF91CF911F910F9108950093C3
:10154000540310935503F4CF2115310551F0421780
:10155000530738F0A901DB019A01BD01DF01F80151
:10156000C1CFEF01F9CF9093550380935403CDCFB2
:10157000FE01E20FF31F81939193225031093983C9
:101580002883D7CF2091520330915303232B41F46A
:1015900020910202309103023093530320935203AF
:1015A00020910002309101022115310541F42DB73F
:1015B0003EB74091040250910502241B350BE09187
:1015C0005203F0915303E217F307A0F42E1B3F0BD5
:1015D0002817390778F0AC014E5F5F4F24173507A5
:1015E00048F04E0F5F1F5093530340935203819373
:1015F00091939FCFF0E0E0E09CCFCF93DF930097F3
:10160000E9F0FC01329713821282A0915403B09149
:101610005503ED0130E020E01097A1F420813181E5
:10162000820F931F209152033091530328173907DB
:1016300009F061C0F0935303E0935203DF91CF911F
:101640000895EA01CE17DF07E8F54A815B819E0124
:1016500041155105B1F7E901FB83EA83499159919D
:10166000C40FD51FEC17FD0761F4808191810296AC
:10167000840F951FE90199838883828193819B83DD
:101680008A83F0E0E0E012968D919C911397009789
:10169000B9F52D913C911197CD010296820F931FC0
:1016A00020915203309153032817390739F63097A8
:1016B00051F51092550310925403B0935303A09325
:1016C0005203BCCFD383C28340815181840F951FC5
:1016D000C817D90761F44E5F5F4F88819981480F21
:1016E000591F518340838A819B8193838283211573
:1016F000310509F0B0CFF0935503E09354039ECF2A
:10170000FD01DC01C0CF13821282D7CF4F925F92CE
:101710006F927F928F929F92AF92BF92CF92DF9201
:10172000EF92FF920F931F93CF93DF938C0100975B
:1017300099F4CB01DF91CF911F910F91FF90EF9022
:10174000DF90CF90BF90AF909F908F907F906F90E1
:101750005F904F900C94610AFC01E60FF71F9C010B
:1017600022503109E217F30708F4AEC0D901CD9138
:10177000DC911197C617D70720F1C530D10578F055
:10178000CE0104978617970750F0C61BD70B2297F8
:10179000C193D1936D937C93CF010E94FD0AC80140
:1017A000DF91CF911F910F91FF90EF90DF90CF903D
:1017B000BF90AF909F908F907F906F905F904F9071
:1017C00008955B01AC1ABD0A4C018C0E9D1EA091C0
:1017D0005403B0915503512C412CF12CE12C10975E
:1017E00031F580915203909153038815990509F0C2
:1017F0005CC04616570608F058C0809100029091D0
:101800000102009741F48DB79EB7409104025091B8
:101810000502841B950BE817F90708F055C0F093F3
:101820005303E0935203F90171836083B8CF8D9124
:101830009C91119712966C90129713967C90139727
:10184000A815B90559F56C0142E0C40ED11CCA14A3
:10185000DB0420F1AC014A195B09DA0112961597F5
:1018600080F06282738251834083D9016D937C93AF
:10187000E114F10471F0D7011396FC93EE931297E3
:101880008ECF22968C0F9D1FF90191838083F301E7
:10189000EFCFF0935503E093540381CF48165906D8
:1018A00008F42C017D01D3019ACFCB010E94610A7B
:1018B0007C01009749F0AE01B8010E94670CC80195
:1018C0000E94FD0A87016BCF10E000E068CFFB01AA
:1018D000DC0102C001900D9241505040D8F70895AC
:1018E000FB01DC0101900D920020E1F70895F894CE
:0218F000FFCF28
:1018F20000005603800000000000AA01D40001018C
:10190200F7017201100164016E616E00696E66007A
:101912006F76660070726F706F7263696F6E6520AA
:1019220078310070726F706F7263696F6E652079C3
:10193200310070726F706F7263696F6E65207832FA
:101942000070726F706F7263696F6E65207932001A
:10195200656C2070756E746F206D6564696F2050C0
:101962004D582065733A000D0A00656C2070756E43
:10197200746F206D6564696F20504D592065733A0C
:02198200000063
:00000001FF
