:100000000C9483000C94B4000C94B4000C94B400D1
:100010000C94B4000C94B4000C94B4000C94B40090
:100020000C94B4000C94B4000C94B4000C94B40080
:100030000C94B4000C94B4000C94B4000C94B40070
:100040000C94B4000C94B4000C94B4000C94B40060
:100050000C94B4000C94B4000C94B4000C94A3025F
:100060000C94B4000C9417030C94ED020C94B4009F
:100070000C94B4000C94B4000C94B4000C94B40030
:100080000C94B4000C94B4000C94B4000C94B40020
:100090000C94B4000C94B4000C94B4000C94B40010
:1000A0000C94B4000C94B4000C94B4000C94B40000
:1000B0000C94B4000C94B4000C94B4000C94B400F0
:1000C0000C94B4000C94B4000C94B4000C94B400E0
:1000D0000C94B4000C94B4000C94B4000C94B400D0
:1000E0000C94B4000C943E050C9446010C948C01C5
:1000F0000C94D9010C94B6000C94E3000C94F2001B
:100100000C9454013E0511241FBECFEFD1E2DEBF97
:10011000CDBF00E00CBF23E0AEE4B2E001C01D9211
:10012000A430B207E1F712E0A0E0B2E0EAE4F4E1C3
:1001300000E00BBF02C007900D92AE34B107D9F7B3
:1001400010E0C3E8D0E000E006C021970109802F4D
:10015000FE010E940508C238D10780E00807A9F710
:100160000E944D030C94230A0C940000AF92BF929E
:10017000CF92DF92EF92FF920F931F93CF93DF9373
:100180006C017B018B01040F151FEB015E01AE18A2
:10019000BF08C017D10759F06991D601ED91FC91C4
:1001A0000190F081E02DC6011995892B79F7C501E1
:1001B000DF91CF911F910F91FF90EF90DF90CF9043
:1001C000BF90AF900895FC01538D448D252F30E0F2
:1001D000842F90E0821B930B541710F0CF96089554
:1001E00001970895FC01918D828D981761F0A28D81
:1001F000AE0FBF2FB11D5D968C91928D9F5F9F7347
:10020000928F90E008958FEF9FEF08952FB7F894A5
:1002100080915F0290916002A0916102B0916202B0
:100220002FBF80936B0290936C02A0936D02B093EA
:100230006E0283E692E00E94F20097FF26C02FB77D
:10024000F89480915F0290916002A0916102B09158
:1002500062022FBF40916B0250916C0260916D025F
:1002600070916E02841B950BA60BB70B4091670231
:10027000509168026091690270916A028417950733
:10028000A607B707B0F28FEF9FEF0895FC01918D9D
:10029000828D981731F0828DE80FF11D858D90E0E9
:1002A00008958FEF9FEF0895FC01918D228D892F86
:1002B00090E0805C9F4F821B91098F73992708956E
:1002C00083E692E00E94540121E0892B09F420E0AA
:1002D000822F0895FC01A48DA80FB92FB11DA35A38
:1002E000BF4F2C91848D90E001968F739927848F56
:1002F000A689B7892C93A089B1898C918370806479
:100300008C93938D848D981306C00288F389E02D19
:1003100080818F7D80830895EF92FF920F931F93CA
:10032000CF93DF93EC0181E0888F9B8D8C8D9813A8
:100330001AC0E889F989808185FF15C09FB7F894B4
:10034000EE89FF896083E889F98980818370806400
:1003500080839FBF81E090E0DF91CF911F910F914B
:10036000FF90EF900895F62E0B8D10E00F5F1F4F5A
:100370000F731127E02E8C8D8E110CC00FB607FC69
:10038000FACFE889F989808185FFF5CFCE010E94F7
:100390006A01F1CFEB8DEC0FFD2FF11DE35AFF4FFA
:1003A000F0829FB7F8940B8FEA89FB898081806285
:1003B000CFCFCF93DF93EC01888D8823B9F0AA8942
:1003C000BB89E889F9898C9185FD03C0808186FD10
:1003D0000DC00FB607FCF7CF8C9185FFF2CF80815F
:1003E00085FFEDCFCE010E946A01E9CFDF91CF9169
:1003F000089580E090E0892B29F00E94600181112E
:100400000E94000080E090E0892B49F080E090E0BD
:10041000892B29F00E94000081110E94000080E0D9
:1004200090E0892B49F080E090E0892B29F00E9430
:10043000000081110E94000080E090E0892B49F0CB
:1004400080E090E0892B29F00E94000081110C943B
:1004500000000895FC0101900020E9F73197AF01F9
:10046000481B590BBC0183E692E00C94B6008F92B6
:100470009F92AF92BF920F931F93CF93DF93CDB70D
:10048000DEB7A1970FB6F894DEBF0FBECDBF19A29D
:10049000423008F44AE08E010F5D1F4F842E912CEC
:1004A000B12CA12CA50194010E94E307E62FB9010C
:1004B000CA01EA30F4F4E05DD801EE938D01232BFC
:1004C000242B252B79F790E080E0109719F0CD01CF
:1004D0000E942A02A1960FB6F894DEBF0FBECDBFD0
:1004E000DF91CF911F910F91BF90AF909F908F9010
:1004F0000895E95CE1CF0F931F93CF93DF93EC0155
:1005000088819981009759F02A813B812617370706
:1005100030F081E0DF91CF911F910F9108958B0111
:100520006F5F7F4F0E943209009759F0998388834B
:100530001B830A832C813D81232B59F7FC011082F8
:10054000E8CF80E0E7CF1F920F920FB60F921124F1
:100550002F933F938F939F93AF93BF9380915F02AD
:1005600090916002A0916102B091620230915E02AE
:1005700023E0230F2D3758F50196A11DB11D2093BF
:100580005E0280935F0290936002A0936102B09339
:10059000620280915A0290915B02A0915C02B0913C
:1005A0005D020196A11DB11D80935A0290935B02DA
:1005B000A0935C02B0935D02BF91AF919F918F9128
:1005C0003F912F910F900FBE0F901F90189526E826
:1005D000230F0296A11DB11DD2CF1F920F920FB60D
:1005E0000F9211240BB60F922F933F934F935F936B
:1005F0006F937F938F939F93AF93BF93EF93FF93EB
:1006000083E692E00E946A01FF91EF91BF91AF9162
:100610009F918F917F916F915F914F913F912F911A
:100620000F900BBE0F900FBE0F901F9018951F924A
:100630000F920FB60F9211240BB60F922F938F9338
:100640009F93EF93FF93E0917302F0917402808186
:10065000E0917902F0917A0282FD1DC09081809133
:100660007C028F5F8F7320917D02821741F0E091B1
:100670007C02F0E0ED59FD4F958F80937C02FF9155
:10068000EF919F918F912F910F900BBE0F900FBE06
:100690000F901F9018958081F2CFCF93DF9300D0F9
:1006A00000D01F921F92CDB7DEB7789484B58260D8
:1006B00084BD84B5816084BD85B5826085BD85B506
:1006C000816085BD80916E00816080936E00109284
:1006D00081008091810082608093810080918100FF
:1006E0008160809381008091800081608093800090
:1006F0008091B10084608093B1008091B0008160EE
:100700008093B000809191008260809391008091ED
:10071000910081608093910080919000816080932E
:1007200090008091A10082608093A1008091A1003F
:1007300081608093A1008091A00081608093A000DF
:10074000809121018260809321018091210181604B
:10075000809321018091200181608093200180910C
:100760007A00846080937A0080917A00826080931E
:100770007A0080917A00816080937A0080917A007B
:10078000806880937A001092C10088E192E00E9414
:100790002A02E0917302F091740282E08083E0917A
:1007A0006F02F09170021082E0917102F09172027A
:1007B0008FEC808310927B02E0917702F0917802B7
:1007C00086E08083E0917502F091760280818061FD
:1007D0008083E0917502F091760280818860808349
:1007E000E0917502F0917602808180688083E091CB
:1007F0007502F091760280818F7D808383E692E09E
:100800000E94540197FDA5C005E010E01A821982EC
:100810001C821B821E821D8270E060E0CE01019668
:100820000E947B0229813A8181112CC0211531055A
:1008300019F0C9010E94A9081A8219821E821D821C
:100840001C821B820E94060197FD24C08F8318869C
:10085000ED80FE808FEFE81AF80AB701CE0101960D
:100860000E947B02882371F329813A818D819E81C8
:10087000BE01695F7F4F820F931F0E941C0AFE8298
:10088000ED82E0CF1E821D826DE472E0C9010E94FC
:100890001C0AD8CFE980FA8060E070E0CB01E11457
:1008A000F10419F0C7010E946B050E94AE054B01CF
:1008B0005C018092560290925702A0925802B09228
:1008C0005902E114F10419F0C7010E94A90820910E
:1008D0005202309153024091540250915502C50189
:1008E000B4010E94CC06609352027093530280932D
:1008F0005402909355020150110909F087CF20E06E
:1009000030E040EA50E40E94380760934E02709352
:100910004F0280935002909351028EE292E00E9427
:100920002A02C0904E02D0904F02E0905002F09008
:100930005102A7019601C701B6010E94DE07882374
:1009400059F08FE392E00E942A028BE492E00E9429
:100950002A020E94F90152CF46015701E894B7F8E4
:100960002FEF3FEF4FE75FE7C501B4010E94DE07BD
:1009700081110DC02FEF3FEF4FE75FE7C501B401D5
:100980000E94A70518161CF483E492E0DCCF2FEF39
:100990003FEF4FE75FE4C701B6010E94D907181681
:1009A0001CF487E492E0CFCF2FEF3FEF4FE75FECEF
:1009B000C701B6010E94A70587FDF3CF20E030E014
:1009C000A901C701B6010E94A70587FF09C06DE212
:1009D00083E692E00E948C01F7FAF094F7F8F09425
:1009E0002AE037ED43EA5BE3C701B6010E94CC067B
:1009F0004B015C010E94AA076B017C010E94AC05BF
:100A00009B01AC01C501B4010E94CB064B015C0106
:100A10004AE0C701B6010E9437026EE283E692E027
:100A20000E948C0120E030E040E251E4C501B401B5
:100A30000E940D064B015C010E94AA076B01F12C7C
:100A4000E12C4AE0C701B6010E943702C701B60196
:100A50000E94AC059B01AC01C501B4010E94CB060C
:100A600020E030E040E251E40E940D060E94AA0717
:100A700090E080E04AE00E94370267CFE3E6F2E0D0
:100A80001382128288EE93E0A0E0B0E08483958325
:100A9000A683B7838AE092E09183808385EC90E01F
:100AA0009587848784EC90E09787868780EC90E038
:100AB000918B808B81EC90E0938B828B82EC90E029
:100AC000958B848B86EC90E0978B868B118E128EA3
:100AD000138E148E08951F93FC0199278827BC015B
:100AE000E89411911032E9F3193010F01E30C8F378
:100AF0001B3251F01D3249F4689406C00E949205E1
:100B0000610F711D811D911D119110531A30B0F3A9
:100B10003EF490958095709561957F4F8F4F9F4FD4
:100B20001F910895592F482F372F262F660F771FB3
:100B3000881F991F660F771F881F991F620F731FE9
:100B4000841F951F660F771F881F991F08950E94A5
:100B5000E90508F481E00895E89409C097FB3EF4A4
:100B600090958095709561957F4F8F4F9F4F9923FA
:100B7000A9F0F92F96E9BB279395F6958795779578
:100B80006795B795F111F8CFFAF4BB0F11F460FF38
:100B90001BC06F5F7F4F8F4F9F4F16C0882311F090
:100BA00096E911C0772321F09EE8872F762F05C0A4
:100BB000662371F096E8862F70E060E02AF09A953F
:100BC000660F771F881FDAF7880F9695879597F934
:100BD0000895990F0008550FAA0BE0E8FEEF1616CE
:100BE0001706E807F907C0F012161306E407F50721
:100BF00098F0621B730B840B950B39F40A2661F095
:100C0000232B242B252B21F408950A2609F4A14037
:100C1000A6958FEF811D811D08950E9420060C94DA
:100C200091060E94830638F00E948A0620F09523E0
:100C300011F00C947A060C94800611240C94C506CD
:100C40000E94A20670F3959FC1F3950F50E0551FC7
:100C5000629FF001729FBB27F00DB11D639FAA2711
:100C6000F00DB11DAA1F649F6627B00DA11D661F60
:100C7000829F2227B00DA11D621F739FB00DA11D81
:100C8000621F839FA00D611D221F749F3327A00D3B
:100C9000611D231F849F600D211D822F762F6A2FD7
:100CA00011249F5750409AF0F1F088234AF0EE0F3C
:100CB000FF1FBB1F661F771F881F91505040A9F769
:100CC0009E3F510580F00C947A060C94C5065F3F58
:100CD000E4F3983ED4F3869577956795B795F795A5
:100CE000E7959F5FC1F7FE2B880F911D969587951D
:100CF00097F9089597F99F6780E870E060E008959C
:100D00009FEF80EC089500240A9416161706180623
:100D10000906089500240A941216130614060506FF
:100D20000895092E0394000C11F4882352F0BB0F90
:100D300040F4BF2B11F460FF04C06F5F7F4F8F4FF3
:100D40009F4F089557FD9058440F551F59F05F3F2E
:100D500071F04795880F97FB991F61F09F3F79F0DD
:100D600087950895121613061406551FF2CF46955F
:100D7000F1DF08C0161617061806991FF1CF8695E1
:100D80007105610508940895E894BB2766277727C5
:100D9000CB0197F908955058BB27AA270E94E30674
:100DA0000C9491060E94830638F00E948A0620F077
:100DB00039F49F3F19F426F40C9480060EF4E09564
:100DC000E7FB0C947A06E92F0E94A20658F3BA17A3
:100DD000620773078407950720F079F4A6F50C9451
:100DE000C4060EF4E0950B2EBA2FA02D0B01B9010D
:100DF00090010C01CA01A0011124FF27591B99F091
:100E0000593F50F4503E68F11A16F040A22F232F9C
:100E1000342F4427585FF3CF469537952795A795EC
:100E2000F0405395C9F77EF41F16BA0B620B730B93
:100E3000840BBAF09150A1F0FF0FBB1F661F771F04
:100E4000881FC2F70EC0BA0F621F731F841F48F4B9
:100E5000879577956795B795F7959E3F08F0B0CF42
:100E60009395880F08F09927EE0F97958795089529
:100E70000E944C070C9491060E948A0658F00E942A
:100E8000830640F029F45F3F29F00C947A06511153
:100E90000C94C5060C9480060E94A20668F3992360
:100EA000B1F3552391F3951B550BBB27AA27621766
:100EB0007307840738F09F5F5F4F220F331F441F73
:100EC000AA1FA9F335D00E2E3AF0E0E832D09150A7
:100ED0005040E695001CCAF72BD0FE2F29D0660F94
:100EE000771F881FBB1F261737074807AB07B0E8D7
:100EF00009F0BB0B802DBF01FF2793585F4F3AF0DD
:100F00009E3F510578F00C947A060C94C5065F3F1D
:100F1000E4F3983ED4F3869577956795B795F79562
:100F20009F5FC9F7880F911D9695879597F908954A
:100F3000E1E0660F771F881FBB1F621773078407E6
:100F4000BA0720F0621B730B840BBA0BEE1F88F7F5
:100F5000E09508950E94AA0688F09F5798F0B92F4F
:100F60009927B751B0F0E1F0660F771F881F991FDE
:100F70001AF0BA95C9F714C0B13091F00E94C406B6
:100F8000B1E008950C94C406672F782F8827B85FC6
:100F900039F0B93FCCF3869577956795B395D9F736
:100FA0003EF490958095709561957F4F8F4F9F4F40
:100FB00008950E94E90508F48FEF08950E94E9055D
:100FC000880B990B0895A1E21A2EAA1BBB1BFD01E9
:100FD0000DC0AA1FBB1FEE1FFF1FA217B307E40718
:100FE000F50720F0A21BB30BE40BF50B661F771F70
:100FF000881F991F1A9469F7609570958095909550
:101000009B01AC01BD01CF010895EE0FFF1F881FAA
:101010008BBF0790F691E02D19940F931F93CF93F8
:10102000DF938230910510F482E090E0E0910203BA
:10103000F091030330E020E0B0E0A0E0309799F4B5
:101040002115310509F44AC0281B390B243031051C
:10105000D8F58A819B816115710589F1FB01938324
:101060008283FE0111C040815181028113814817A2
:101070005907E0F04817590799F4109761F0129654
:101080000C93129713961C933296CF01DF91CF9158
:101090001F910F9108950093020310930303F4CF5F
:1010A0002115310551F04217530738F0A901DB0132
:1010B0009A01BD01DF01F801C1CFEF01F9CF909393
:1010C000030380930203CDCFFE01E20FF31F819350
:1010D00091932250310939832883D7CF209100037F
:1010E00030910103232B41F420910202309103023D
:1010F00030930103209300032091000230910102FC
:101100002115310541F42DB73EB7409104025091AD
:101110000502241B350BE0910003F0910103E21757
:10112000F307A0F42E1B3F0B2817390778F0AC010A
:101130004E5F5F4F2417350748F04E0F5F1F5093E7
:10114000010340930003819391939FCFF0E0E0E08F
:101150009CCFCF93DF930097E9F0FC013297138285
:101160001282A0910203B0910303ED0130E020E070
:101170001097A1F420813181820F931F20910003E9
:10118000309101032817390709F061C0F09301037A
:10119000E0930003DF91CF910895EA01CE17DF07B6
:1011A000E8F54A815B819E0141155105B1F7E901DE
:1011B000FB83EA8349915991C40FD51FEC17FD07B2
:1011C00061F4808191810296840F951FE9019983D2
:1011D0008883828193819B838A83F0E0E0E012968A
:1011E0008D919C9113970097B9F52D913C91119792
:1011F000CD010296820F931F2091000330910103CD
:101200002817390739F6309751F5109203031092D9
:101210000203B0930103A0930003BCCFD383C28326
:1012200040815181840F951FC817D90761F44E5F23
:101230005F4F88819981480F591F518340838A816C
:101240009B81938382832115310509F0B0CFF09300
:101250000303E09302039ECFFD01DC01C0CF1382A4
:101260001282D7CF4F925F926F927F928F929F920E
:10127000AF92BF92CF92DF92EF92FF920F931F93A4
:10128000CF93DF938C01009799F4CB01DF91CF913D
:101290001F910F91FF90EF90DF90CF90BF90AF9094
:1012A0009F908F907F906F905F904F900C940D085F
:1012B000FC01E60FF71F9C0122503109E217F307EA
:1012C00008F4AEC0D901CD91DC911197C617D707AC
:1012D00020F1C530D10578F0CE0104978617970725
:1012E00050F0C61BD70B2297C193D1936D937C937B
:1012F000CF010E94A908C801DF91CF911F910F91E2
:10130000FF90EF90DF90CF90BF90AF909F908F9025
:101310007F906F905F904F9008955B01AC1ABD0A6B
:101320004C018C0E9D1EA0910203B0910303512C21
:10133000412CF12CE12C109731F580910003909114
:1013400001038815990509F05CC04616570608F098
:1013500058C08091000290910102009741F48DB72E
:101360009EB74091040250910502841B950BE8172B
:10137000F90708F055C0F0930103E0930003F90169
:1013800071836083B8CF8D919C91119712966C9068
:10139000129713967C901397A815B90559F56C010F
:1013A00042E0C40ED11CCA14DB0420F1AC014A197E
:1013B0005B09DA011296159780F06282738251837D
:1013C0004083D9016D937C93E114F10471F0D7014E
:1013D0001396FC93EE9312978ECF22968C0F9D1F3F
:1013E000F90191838083F301EFCFF0930303E0933E
:1013F000020381CF4816590608F42C017D01D30160
:101400009ACFCB010E940D087C01009749F0AE01F4
:10141000B8010E94130AC8010E94A90887016BCF76
:1014200010E000E068CFFB01DC0102C001900D92EA
:1014300041505040D8F70895FB01DC0101900D9216
:0A1440000020E1F70895F894FFCFB3
:10144A00000004038000000000008C01B600E300E5
:10145A00D9015401F2004601696E67726573612011
:10146A006C6F732035206E756D65726F7300456CF5
:10147A002070726F6D6564696F2065733A20006E23
:0E148A00616E00696E66006F7666000D0A00E6
:00000001FF
