:100000000C9483000C94B4000C94B4000C94B400D1
:100010000C94B4000C94B4000C94B4000C94B40090
:100020000C94B4000C94B4000C94B4000C94B40080
:100030000C94B4000C94B4000C94B4000C94B40070
:100040000C94B4000C94B4000C94B4000C94B40060
:100050000C94B4000C94B4000C94B4000C944003C1
:100060000C94B4000C940A030C94E0020C94B400B9
:100070000C94B4000C94B4000C94B4000C94B40030
:100080000C94B4000C94B4000C94B4000C94B40020
:100090000C94B4000C94B4000C94B4000C94B40010
:1000A0000C94B4000C94B4000C94B4000C94B40000
:1000B0000C94B4000C94B4000C94B4000C94B400F0
:1000C0000C94B4000C94B4000C94B4000C94B400E0
:1000D0000C94B4000C94B4000C94B4000C94B400D0
:1000E0000C94B4000C940B050C94F2000C94540185
:1000F0000C94B6000C94D9010C948C010C94E30080
:100100000C9446010B0511241FBECFEFD1E2DEBFD8
:10011000CDBF00E00CBF23E0AEE6B2E001C01D920F
:10012000AC31B207E1F712E0A0E0B2E0ECE6FFE0AC
:1001300000E00BBF02C007900D92AE36B107D9F7B1
:1001400010E0C3E8D0E000E006C021970109802F4D
:10015000FE010E949605C238D10780E00807A9F782
:100160000E948A030C94B4070C940000AF92BF92D3
:10017000CF92DF92EF92FF920F931F93CF93DF9373
:100180006C017B018B01040F151FEB015E01AE18A2
:10019000BF08C017D10759F06991D601ED91FC91C4
:1001A0000190F081E02DC6011995892B79F7C501E1
:1001B000DF91CF911F910F91FF90EF90DF90CF9043
:1001C000BF90AF900895FC01538D448D252F30E0F2
:1001D000842F90E0821B930B541710F0CF96089554
:1001E00001970895FC01918D828D981761F0A28D81
:1001F000AE0FBF2FB11D5D968C91928D9F5F9F7347
:10020000928F90E008958FEF9FEF08952FB7F894A5
:100210008091770290917802A0917902B0917A0250
:100220002FBF8093830290938402A0938502B093A2
:1002300086028BE792E00E94F20097FF26C02FB75C
:10024000F8948091770290917802A0917902B09110
:100250007A022FBF409183025091840260918502FF
:1002600070918602841B950BA60BB70B40917F0201
:1002700050918002609181027091820284179507EB
:10028000A607B707B0F28FEF9FEF0895FC01918D9D
:10029000828D981731F0828DE80FF11D858D90E0E9
:1002A00008958FEF9FEF0895FC01918D228D892F86
:1002B00090E0805C9F4F821B91098F73992708956E
:1002C0008BE792E00E94540121E0892B09F420E0A1
:1002D000822F0895FC01A48DA80FB92FB11DA35A38
:1002E000BF4F2C91848D90E001968F739927848F56
:1002F000A689B7892C93A089B1898C918370806479
:100300008C93938D848D981306C00288F389E02D19
:1003100080818F7D80830895EF92FF920F931F93CA
:10032000CF93DF93EC0181E0888F9B8D8C8D9813A8
:100330001AC0E889F989808185FF15C09FB7F894B4
:10034000EE89FF896083E889F98980818370806400
:1003500080839FBF81E090E0DF91CF911F910F914B
:10036000FF90EF900895F62E0B8D10E00F5F1F4F5A
:100370000F731127E02E8C8D8E110CC00FB607FC69
:10038000FACFE889F989808185FFF5CFCE010E94F7
:100390006A01F1CFEB8DEC0FFD2FF11DE35AFF4FFA
:1003A000F0829FB7F8940B8FEA89FB898081806285
:1003B000CFCFCF93DF93EC01888D8823B9F0AA8942
:1003C000BB89E889F9898C9185FD03C0808186FD10
:1003D0000DC00FB607FCF7CF8C9185FFF2CF80815F
:1003E00085FFEDCFCE010E946A01E9CFDF91CF9169
:1003F000089580E090E0892B29F00E94600181112E
:100400000E94000080E090E0892B49F080E090E0BD
:10041000892B29F00E94000081110E94000080E0D9
:1004200090E0892B49F080E090E0892B29F00E9430
:10043000000081110E94000080E090E0892B49F0CB
:1004400080E090E0892B29F00E94000081110C943B
:10045000000008953FB7F89480916F029091700268
:10046000A0917102B091720226B5A89B05C02F3FE2
:1004700019F00196A11DB11D3FBFBA2FA92F982FCA
:100480008827BC01CD01620F711D811D911D42E0C5
:10049000660F771F881F991F4A95D1F70895FC01B1
:1004A00001900020E9F73197AF01481B590BBC01BF
:1004B0008BE792E00C94B6000F931F93CF93DF93DA
:1004C000EC0188819981009759F02A813B81261798
:1004D000370730F081E0DF91CF911F910F910895A0
:1004E0008B016F5F7F4F0E94C306009759F099837D
:1004F00088831B830A832C813D81232B59F7FC01C0
:100500001082E8CF80E0E7CFEF92FF920F931F9326
:10051000CF93DF931F921F92CDB7DEB78C01FC0102
:1005200011821082138212821582148270E060E0C0
:100530000E945C02F8012081318181112FC02115B8
:10054000310519F0C9010E943A06F80111821082A2
:1005500015821482138212820E94060197FD26C022
:1005600089831A82F801E480F580FFEFEF1AFF0A11
:10057000B701C8010E945C02882371F3F801208151
:10058000318184819581BE016F5F7F4F820F931F00
:100590000E94AD07F801F582E482DECF1582148255
:1005A0006DE672E0C9010E94AD07D6CFC8010F9079
:1005B0000F90DF91CF911F910F91FF90EF900895D1
:1005C0001F920F920FB60F9211240BB60F922F931A
:1005D0003F934F935F936F937F938F939F93AF93CB
:1005E000BF93EF93FF938BE792E00E946A01FF9124
:1005F000EF91BF91AF919F918F917F916F915F919B
:100600004F913F912F910F900BBE0F900FBE0F9007
:100610001F9018951F920F920FB60F9211240BB6D0
:100620000F922F938F939F93EF93FF93E0918B0201
:10063000F0918C028081E0919102F091920282FD12
:100640001DC09081809194028F5F8F7320919502DD
:10065000821741F0E0919402F0E0E558FD4F958F4C
:1006600080939402FF91EF919F918F912F910F9022
:100670000BBE0F900FBE0F901F9018958081F2CF88
:100680001F920F920FB60F9211242F933F938F93C7
:100690009F93AF93BF938091770290917802A0913E
:1006A0007902B0917A0230916E0223E0230F2D3748
:1006B00058F50196A11DB11D20936E02809377021B
:1006C00090937802A0937902B0937A0280916F029E
:1006D00090917002A0917102B09172020196A11DD9
:1006E000B11D80936F0290937002A0937102B0933A
:1006F0007202BF91AF919F918F913F912F910F9077
:100700000FBE0F901F90189526E8230F0296A11D8B
:10071000B11DD2CFCF93DF93CDB7DEB7A1970FB680
:10072000F894DEBF0FBECDBF789484B5826084BDDF
:1007300084B5816084BD85B5826085BD85B58160E5
:1007400085BD80916E00816080936E001092810063
:10075000809181008260809381008091810081601E
:1007600080938100809180008160809380008091DF
:10077000B10084608093B1008091B000816080936B
:10078000B0008091910082608093910080919100EF
:1007900081608093910080919000816080939000AF
:1007A0008091A10082608093A1008091A10081606E
:1007B0008093A1008091A00081608093A00080912F
:1007C00021018260809321018091210181608093C9
:1007D00021018091200181608093200180917A0025
:1007E000846080937A0080917A00826080937A009E
:1007F00080917A00816080937A0080917A0080688D
:1008000080937A001092C100E0918B02F0918C02EB
:1008100082E08083E0918702F09188021082E0916B
:100820008902F0918A028FEC808310929302E0910A
:100830008F02F091900286E08083E0918D02F0912A
:100840008E02808180618083E0918D02F0918E0222
:10085000808188608083E0918D02F0918E0280819A
:1008600080688083E0918D02F0918E0280818F7D7F
:10087000808335E0332E4AE0C42ED12CE12CF12CBC
:100880008BE792E00E945401181619060CF086C0FE
:1008900088E192E00E944F02CE0101960E948402FC
:1008A00009811A8160E070E0CB010115110519F092
:1008B000C8010E9438057093760260937502011595
:1008C000110519F0C8010E943A0680E392E00E94E7
:1008D0004F02CE0101960E94840209811A8160E0D4
:1008E00070E0CB010115110519F0C8010E9438050F
:1008F00070937402609373020115110519F0C80119
:100900000E943A0687E492E00E944F0280917502AD
:1009100090917602389EA001399E500D11242091AD
:10092000730230917402429FC001439F900D529F09
:10093000900D112497FD0196959587952C01092E10
:10094000000C6608770897FF50C06DE28BE792E0D5
:100950000E948C0122273327A90124193509460951
:10096000570919A28E010F5D1F4FCA01B901A701D6
:1009700096010E947405605DF80162938F01211554
:1009800031054105510589F70115110519F0C80117
:100990000E944F028BE692E00E944F020E942A02C0
:1009A0002B013C018AEF882E912CA12CB12C0E94A6
:1009B0002A026419750986099709683E7340810502
:1009C0009105A8F3F1E08F1A9108A108B10828EE6B
:1009D000420E23E0521E611C711C81149104A1047B
:1009E000B10429F70E94F9014BCFA301920119A28A
:1009F0008E010F5D1F4FCA01B901A70196010E9428
:100A00007405605DF80162938F0121153105410580
:100A1000510589F7B9CFEBE7F2E01382128288EE35
:100A200093E0A0E0B0E084839583A683B7838AE057
:100A300092E09183808385EC90E09587848784ECB5
:100A400090E09787868780EC90E0918B808B81EC9B
:100A500090E0938B828B82EC90E0958B848B86EC7C
:100A600090E0978B868B118E128E138E148E0895C4
:100A70001F93FC0199278827BC01E894119110323B
:100A8000E9F3193010F01E30C8F31B3251F01D325B
:100A900049F4689406C00E945F05610F711D811DB5
:100AA000911D119110531A30B0F33EF4909580953A
:100AB000709561957F4F8F4F9F4F1F910895592FCC
:100AC000482F372F262F660F771F881F991F660F15
:100AD000771F881F991F620F731F841F951F660F52
:100AE000771F881F991F0895A1E21A2EAA1BBB1B0E
:100AF000FD010DC0AA1FBB1FEE1FFF1FA217B307EA
:100B0000E407F50720F0A21BB30BE40BF50B661FFF
:100B1000771F881F991F1A9469F7609570958095C3
:100B200090959B01AC01BD01CF010895EE0FFF1F11
:100B3000881F8BBF0790F691E02D19940F931F9398
:100B4000CF93DF938230910510F482E090E0E09142
:100B50001A03F0911B0330E020E0B0E0A0E03097F2
:100B600099F42115310509F44AC0281B390B2430AA
:100B70003105D8F58A819B816115710589F1FB01E9
:100B800093838283FE0111C04081518102811381D0
:100B900048175907E0F04817590799F4109761F082
:100BA00012960C93129713961C933296CF01DF91F5
:100BB000CF911F910F91089500931A0310931B0377
:100BC000F4CF2115310551F04217530738F0A90130
:100BD000DB019A01BD01DF01F801C1CFEF01F9CFBF
:100BE00090931B0380931A03CDCFFE01E20FF31FF6
:100BF000819391932250310939832883D7CF209153
:100C0000180330911903232B41F4209102023091F3
:100C100003023093190320931803209100023091AE
:100C200001022115310541F42DB73EB74091040270
:100C300050910502241B350BE0911803F091190324
:100C4000E217F307A0F42E1B3F0B2817390778F0A3
:100C5000AC014E5F5F4F2417350748F04E0F5F1F02
:100C60005093190340931803819391939FCFF0E021
:100C7000E0E09CCFCF93DF930097E9F0FC0132973F
:100C800013821282A0911A03B0911B03ED0130E090
:100C900020E01097A1F420813181820F931F2091D1
:100CA0001803309119032817390709F061C0F09330
:100CB0001903E0931803DF91CF910895EA01CE174D
:100CC000DF07E8F54A815B819E0141155105B1F7C7
:100CD000E901FB83EA8349915991C40FD51FEC17B1
:100CE000FD0761F4808191810296840F951FE901CF
:100CF00099838883828193819B838A83F0E0E0E0FB
:100D000012968D919C9113970097B9F52D913C9176
:100D10001197CD010296820F931F209118033091F5
:100D200019032817390739F6309751F510921B032C
:100D300010921A03B0931903A0931803BCCFD38366
:100D4000C28340815181840F951FC817D90761F470
:100D50004E5F5F4F88819981480F591F51834083AF
:100D60008A819B81938382832115310509F0B0CF5D
:100D7000F0931B03E0931A039ECFFD01DC01C0CF6B
:100D800013821282D7CF4F925F926F927F928F928F
:100D90009F92AF92BF92CF92DF92EF92FF920F930A
:100DA0001F93CF93DF938C01009799F4CB01DF91D0
:100DB000CF911F910F91FF90EF90DF90CF90BF9058
:100DC000AF909F908F907F906F905F904F900C941A
:100DD0009E05FC01E60FF71F9C0122503109E21726
:100DE000F30708F4AEC0D901CD91DC911197C61775
:100DF000D70720F1C530D10578F0CE0104978617CA
:100E0000970750F0C61BD70B2297C193D1936D93D0
:100E10007C93CF010E943A06C801DF91CF911F91C8
:100E20000F91FF90EF90DF90CF90BF90AF909F9089
:100E30008F907F906F905F904F9008955B01AC1AF8
:100E4000BD0A4C018C0E9D1EA0911A03B0911B038C
:100E5000512C412CF12CE12C109731F58091180385
:100E6000909119038815990509F05CC0461657063C
:100E700008F058C08091000290910102009741F45F
:100E80008DB79EB74091040250910502841B950BCB
:100E9000E817F90708F055C0F0931903E093180319
:100EA000F90171836083B8CF8D919C91119712964F
:100EB0006C90129713967C901397A815B90559F565
:100EC0006C0142E0C40ED11CCA14DB0420F1AC0159
:100ED0004A195B09DA011296159780F062827382D3
:100EE00051834083D9016D937C93E114F10471F037
:100EF000D7011396FC93EE9312978ECF22968C0F08
:100F00009D1FF90191838083F301EFCFF0931B03C1
:100F1000E0931A0381CF4816590608F42C017D018D
:100F2000D3019ACFCB010E949E057C01009749F026
:100F3000AE01B8010E94A407C8010E943A068701C9
:100F40006BCF10E000E068CFFB01DC0102C0019034
:100F50000D9241505040D8F70895FB01DC010190FB
:0C0F60000D920020E1F70895F894FFCFF7
:100F6C0000001C038000000000008C01B600E300B0
:100F7C00D9015401F200460170726F706F7263698F
:100F8C006F6E65206C61206C6F6E676974756400A0
:100F9C0070726F706F7263696F6E6520656C206123
:100FAC00706F74656D6100656C20617265612064A1
:100FBC00656C20706F6C69676F6E6F2072656775FA
:0E0FCC006C61722065732064653A000D0A00A6
:00000001FF
